{
  "abi": [
    {
      "inputs": [
        {
          "internalType": "address",
          "name": "_starknet",
          "type": "address"
        },
        {
          "internalType": "uint256",
          "name": "_l2Contract",
          "type": "uint256"
        },
        {
          "internalType": "uint256",
          "name": "_SELECTOR",
          "type": "uint256"
        }
      ],
      "stateMutability": "nonpayable",
      "type": "constructor"
    },
    {
      "inputs": [],
      "name": "IsNotPublisher",
      "type": "error"
    },
    {
      "inputs": [],
      "name": "NotKeeper",
      "type": "error"
    },
    {
      "inputs": [],
      "name": "NotOwner",
      "type": "error"
    },
    {
      "anonymous": false,
      "inputs": [],
      "name": "MessageSentToLayer2",
      "type": "event"
    },
    {
      "anonymous": false,
      "inputs": [
        {
          "indexed": false,
          "internalType": "address",
          "name": "publisher",
          "type": "address"
        }
      ],
      "name": "NewPublisher",
      "type": "event"
    },
    {
      "inputs": [],
      "name": "SELECTOR",
      "outputs": [
        {
          "internalType": "uint256",
          "name": "",
          "type": "uint256"
        }
      ],
      "stateMutability": "view",
      "type": "function"
    },
    {
      "inputs": [
        {
          "internalType": "address",
          "name": "_keeper",
          "type": "address"
        }
      ],
      "name": "addNewKeeper",
      "outputs": [],
      "stateMutability": "nonpayable",
      "type": "function"
    },
    {
      "inputs": [
        {
          "internalType": "address",
          "name": "_publisher",
          "type": "address"
        }
      ],
      "name": "addNewPublisher",
      "outputs": [],
      "stateMutability": "nonpayable",
      "type": "function"
    },
    {
      "inputs": [
        {
          "internalType": "uint256",
          "name": "",
          "type": "uint256"
        }
      ],
      "name": "addressId",
      "outputs": [
        {
          "internalType": "address",
          "name": "",
          "type": "address"
        }
      ],
      "stateMutability": "view",
      "type": "function"
    },
    {
      "inputs": [],
      "name": "countPublishers",
      "outputs": [
        {
          "internalType": "uint256",
          "name": "",
          "type": "uint256"
        }
      ],
      "stateMutability": "view",
      "type": "function"
    },
    {
      "inputs": [
        {
          "internalType": "address",
          "name": "",
          "type": "address"
        }
      ],
      "name": "data",
      "outputs": [
        {
          "internalType": "address",
          "name": "sender",
          "type": "address"
        }
      ],
      "stateMutability": "view",
      "type": "function"
    },
    {
      "inputs": [
        {
          "internalType": "address",
          "name": "",
          "type": "address"
        }
      ],
      "name": "isAllowed",
      "outputs": [
        {
          "internalType": "bool",
          "name": "",
          "type": "bool"
        }
      ],
      "stateMutability": "view",
      "type": "function"
    },
    {
      "inputs": [],
      "name": "keeper",
      "outputs": [
        {
          "internalType": "address",
          "name": "",
          "type": "address"
        }
      ],
      "stateMutability": "view",
      "type": "function"
    },
    {
      "inputs": [],
      "name": "l2Contract",
      "outputs": [
        {
          "internalType": "uint256",
          "name": "",
          "type": "uint256"
        }
      ],
      "stateMutability": "view",
      "type": "function"
    },
    {
      "inputs": [],
      "name": "owner",
      "outputs": [
        {
          "internalType": "address",
          "name": "",
          "type": "address"
        }
      ],
      "stateMutability": "view",
      "type": "function"
    },
    {
      "inputs": [
        {
          "internalType": "uint256",
          "name": "asset_symbol",
          "type": "uint256"
        },
        {
          "internalType": "uint256",
          "name": "asset_name",
          "type": "uint256"
        },
        {
          "internalType": "address",
          "name": "_account",
          "type": "address"
        },
        {
          "internalType": "uint256",
          "name": "account_balance",
          "type": "uint256"
        },
        {
          "internalType": "bytes32",
          "name": "r",
          "type": "bytes32"
        },
        {
          "internalType": "bytes32",
          "name": "s",
          "type": "bytes32"
        },
        {
          "internalType": "uint8",
          "name": "v",
          "type": "uint8"
        }
      ],
      "name": "publishData",
      "outputs": [],
      "stateMutability": "nonpayable",
      "type": "function"
    },
    {
      "inputs": [
        {
          "internalType": "uint256",
          "name": "",
          "type": "uint256"
        }
      ],
      "name": "publishers",
      "outputs": [
        {
          "internalType": "address",
          "name": "",
          "type": "address"
        }
      ],
      "stateMutability": "view",
      "type": "function"
    },
    {
      "inputs": [],
      "name": "sendBatchTransaction",
      "outputs": [],
      "stateMutability": "nonpayable",
      "type": "function"
    },
    {
      "inputs": [],
      "name": "starkNet",
      "outputs": [
        {
          "internalType": "address",
          "name": "",
          "type": "address"
        }
      ],
      "stateMutability": "view",
      "type": "function"
    }
  ],
  "bytecode": {
    "object": "0x608060405234801561001057600080fd5b506040516109ec3803806109ec83398101604081905261002f91610067565b600080546001600160a01b039094166001600160a01b03199485161790556004919091556001805490921633179091556006556100aa565b60008060006060848603121561007c57600080fd5b83516001600160a01b038116811461009357600080fd5b602085015160409095015190969495509392505050565b610933806100b96000396000f3fe608060405234801561001057600080fd5b50600436106100ea5760003560e01c8063aced16611161008c578063babcc53911610066578063babcc539146101d1578063c0bc1fa714610204578063e7b2a1331461020d578063ff060fbd1461023657600080fd5b8063aced166114610182578063af8ee7fa14610195578063b90d3d0c146101a857600080fd5b80633aced149116100c85780633aced1491461014b578063641c7659146101545780636f110e0d1461015c5780638da5cb5b1461016f57600080fd5b8063053c238d146100ef5780630a46370d1461010b5780630b43773e14610120575b600080fd5b6100f860065481565b6040519081526020015b60405180910390f35b61011e6101193660046107aa565b610249565b005b600054610133906001600160a01b031681565b6040516001600160a01b039091168152602001610102565b6100f860045481565b61011e6104a2565b61011e61016a366004610817565b61060c565b600154610133906001600160a01b031681565b600254610133906001600160a01b031681565b61011e6101a3366004610817565b610659565b6101336101b6366004610817565b6007602052600090815260409020546001600160a01b031681565b6101f46101df366004610817565b60086020526000908152604090205460ff1681565b6040519015158152602001610102565b6100f860055481565b61013361021b366004610839565b6009602052600090815260409020546001600160a01b031681565b610133610244366004610839565b610704565b3360009081526008602052604090205460ff16151560011461027e57604051634002956760e11b815260040160405180910390fd5b60408051600b808252610180820190925260009160208201610160803683375050815191925089918991506001600160a01b0389169087908790859087906000906102cb576102cb610852565b60200260200101818152505083866001815181106102eb576102eb610852565b602002602001018181525050828660028151811061030b5761030b610852565b602002602001018181525050898660038151811061032b5761032b610852565b602002602001018181525050428660048151811061034b5761034b610852565b60209081029190910101526001600160801b038216608083901c8760058151811061037857610378610852565b602002602001018860068151811061039257610392610852565b6020908102919091010191909152526001600160801b038116608082901c876007815181106103c3576103c3610852565b60200260200101886008815181106103dd576103dd610852565b60200260200101828152508281525050508660ff168660098151811061040557610405610852565b602002602001018181525050336001600160a01b031686600a8151811061042e5761042e610852565b602090810291909101810191909152604080518082018252338082528184018a8152600091825260078552929020815181546001600160a01b0319166001600160a01b039091161781559151805191936104909260018501929091019061072e565b50505050505050505050505050505050565b6002546001600160a01b031633146104cd57604051631ea2564f60e31b815260040160405180910390fd5b60005b6005548110156105e0576000818152600960209081526040808320546001600160a01b031680845260078352818420600101805483518186028101860190945280845291949390919083018282801561054857602002820191906000526020600020905b815481526020019060010190808311610534575b505060005460048054600654604051633e3aa6c560e01b81529798506001600160a01b0390931696633e3aa6c596506105879550909350879101610868565b6020604051808303816000875af11580156105a6573d6000803e3d6000fd5b505050506040513d601f19601f820116820180604052508101906105ca91906108bd565b50505080806105d8906108d6565b9150506104d0565b506040517f59efe3b69d57580d3ea082557781a3ffd7d2d1fd7206f26b66b4504a944bc03990600090a1565b6001546001600160a01b03163314610637576040516330cd747160e01b815260040160405180910390fd5b600280546001600160a01b0319166001600160a01b0392909216919091179055565b6001546001600160a01b03163314610684576040516330cd747160e01b815260040160405180910390fd5b6001600160a01b0381166000818152600860209081526040808320805460ff19166001908117909155600580548552600984529382902080546001600160a01b0319168617905583540190925590519182527f2e491577dda40a56c48be93315e96b4edefde83d540d6059a72bd8193b71b13d910160405180910390a150565b6003818154811061071457600080fd5b6000918252602090912001546001600160a01b0316905081565b828054828255906000526020600020908101928215610769579160200282015b8281111561076957825182559160200191906001019061074e565b50610775929150610779565b5090565b5b80821115610775576000815560010161077a565b80356001600160a01b03811681146107a557600080fd5b919050565b600080600080600080600060e0888a0312156107c557600080fd5b87359650602088013595506107dc6040890161078e565b9450606088013593506080880135925060a0880135915060c088013560ff8116811461080757600080fd5b8091505092959891949750929550565b60006020828403121561082957600080fd5b6108328261078e565b9392505050565b60006020828403121561084b57600080fd5b5035919050565b634e487b7160e01b600052603260045260246000fd5b6000606082018583526020858185015260606040850152818551808452608086019150828701935060005b818110156108af57845183529383019391830191600101610893565b509098975050505050505050565b6000602082840312156108cf57600080fd5b5051919050565b6000600182016108f657634e487b7160e01b600052601160045260246000fd5b506001019056fea264697066735822122093cf514b34453c93d435411b56f15bae5cc4da2bb7d4b06254ec01631ea42ebf64736f6c63430008110033",
    "linkReferences": {}
  },
  "methodIdentifiers": {
    "SELECTOR()": "053c238d",
    "addNewKeeper(address)": "6f110e0d",
    "addNewPublisher(address)": "af8ee7fa",
    "addressId(uint256)": "e7b2a133",
    "countPublishers()": "c0bc1fa7",
    "data(address)": "b90d3d0c",
    "isAllowed(address)": "babcc539",
    "keeper()": "aced1661",
    "l2Contract()": "3aced149",
    "owner()": "8da5cb5b",
    "publishData(uint256,uint256,address,uint256,bytes32,bytes32,uint8)": "0a46370d",
    "publishers(uint256)": "ff060fbd",
    "sendBatchTransaction()": "641c7659",
    "starkNet()": "0b43773e"
  },
  "id": 1
}