{
  "abi": [
    {
      "inputs": [
        {
          "internalType": "uint256",
          "name": "_l2Contract",
          "type": "uint256"
        },
        {
          "internalType": "address",
          "name": "_starknet",
          "type": "address"
        }
      ],
      "stateMutability": "nonpayable",
      "type": "constructor"
    },
    {
      "inputs": [],
      "name": "l2Contract",
      "outputs": [
        {
          "internalType": "uint256",
          "name": "",
          "type": "uint256"
        }
      ],
      "stateMutability": "view",
      "type": "function"
    },
    {
      "inputs": [
        {
          "internalType": "uint256",
          "name": "_x",
          "type": "uint256"
        }
      ],
      "name": "set",
      "outputs": [
        {
          "internalType": "bool",
          "name": "",
          "type": "bool"
        }
      ],
      "stateMutability": "nonpayable",
      "type": "function"
    },
    {
      "inputs": [],
      "name": "starkNet",
      "outputs": [
        {
          "internalType": "address",
          "name": "",
          "type": "address"
        }
      ],
      "stateMutability": "view",
      "type": "function"
    }
  ],
  "bytecode": {
    "object": "0x60806040527f0285bf58ec02805b98f6312870810674b3a5656569bff08924716d5cdc563f3f60025534801561003457600080fd5b506040516103503803806103508339810160408190526100539161007b565b600080546001600160a01b0319166001600160a01b03929092169190911790556001556100b8565b6000806040838503121561008e57600080fd5b825160208401519092506001600160a01b03811681146100ad57600080fd5b809150509250929050565b610289806100c76000396000f3fe608060405234801561001057600080fd5b50600436106100415760003560e01c80630b43773e146100465780633aced1491461007657806360fe47b11461008d575b600080fd5b600054610059906001600160a01b031681565b6040516001600160a01b0390911681526020015b60405180910390f35b61007f60015481565b60405190815260200161006d565b6100a061009b3660046101a0565b6100b0565b604051901515815260200161006d565b6040805160018082528183019092526000918291906020808301908036833701905050905082816000815181106100e9576100e96101b9565b60209081029190910101526000805460015460025460405184936001600160a01b03169261011d92909187906024016101cf565b60408051601f198184030181529181526020820180516001600160e01b0316632068741160e11b179052516101529190610224565b6000604051808303816000865af19150503d806000811461018f576040519150601f19603f3d011682016040523d82523d6000602084013e610194565b606091505b50909695505050505050565b6000602082840312156101b257600080fd5b5035919050565b634e487b7160e01b600052603260045260246000fd5b6000606082018583526020858185015260606040850152818551808452608086019150828701935060005b81811015610216578451835293830193918301916001016101fa565b509098975050505050505050565b6000825160005b81811015610245576020818601810151858301520161022b565b50600092019182525091905056fea2646970667358221220a67cee31fbfd37e797186aba633423ebd7803b4eedaa20fe1ca1eaa9d91e760a64736f6c63430008110033",
    "linkReferences": {}
  },
  "methodIdentifiers": {
    "l2Contract()": "3aced149",
    "set(uint256)": "60fe47b1",
    "starkNet()": "0b43773e"
  },
  "id": 7
}