{
  "abi": [
    {
      "inputs": [
        {
          "internalType": "uint256",
          "name": "_cooldown",
          "type": "uint256"
        },
        {
          "internalType": "address",
          "name": "registry",
          "type": "address"
        }
      ],
      "stateMutability": "nonpayable",
      "type": "constructor"
    },
    {
      "inputs": [],
      "name": "NotOwner",
      "type": "error"
    },
    {
      "anonymous": false,
      "inputs": [
        {
          "indexed": false,
          "internalType": "uint256",
          "name": "coolDown",
          "type": "uint256"
        }
      ],
      "name": "CooldownSet",
      "type": "event"
    },
    {
      "anonymous": false,
      "inputs": [
        {
          "indexed": true,
          "internalType": "address",
          "name": "registry",
          "type": "address"
        }
      ],
      "name": "RegistryContractSet",
      "type": "event"
    },
    {
      "inputs": [
        {
          "internalType": "bytes",
          "name": "checkData",
          "type": "bytes"
        }
      ],
      "name": "checkUpkeep",
      "outputs": [
        {
          "internalType": "bool",
          "name": "upkeepNeeded",
          "type": "bool"
        },
        {
          "internalType": "bytes",
          "name": "performData",
          "type": "bytes"
        }
      ],
      "stateMutability": "view",
      "type": "function"
    },
    {
      "inputs": [],
      "name": "cooldown",
      "outputs": [
        {
          "internalType": "uint256",
          "name": "",
          "type": "uint256"
        }
      ],
      "stateMutability": "view",
      "type": "function"
    },
    {
      "inputs": [],
      "name": "lastTimeStamp",
      "outputs": [
        {
          "internalType": "uint256",
          "name": "",
          "type": "uint256"
        }
      ],
      "stateMutability": "view",
      "type": "function"
    },
    {
      "inputs": [],
      "name": "owner",
      "outputs": [
        {
          "internalType": "address",
          "name": "",
          "type": "address"
        }
      ],
      "stateMutability": "view",
      "type": "function"
    },
    {
      "inputs": [
        {
          "internalType": "bytes",
          "name": "performData",
          "type": "bytes"
        }
      ],
      "name": "performUpkeep",
      "outputs": [],
      "stateMutability": "nonpayable",
      "type": "function"
    },
    {
      "inputs": [],
      "name": "registryContract",
      "outputs": [
        {
          "internalType": "address",
          "name": "",
          "type": "address"
        }
      ],
      "stateMutability": "view",
      "type": "function"
    },
    {
      "inputs": [
        {
          "internalType": "uint256",
          "name": "_cooldown",
          "type": "uint256"
        }
      ],
      "name": "setCoolDown",
      "outputs": [],
      "stateMutability": "nonpayable",
      "type": "function"
    },
    {
      "inputs": [
        {
          "internalType": "address",
          "name": "_registryContract",
          "type": "address"
        }
      ],
      "name": "setRegistryContract",
      "outputs": [],
      "stateMutability": "nonpayable",
      "type": "function"
    }
  ],
  "bytecode": {
    "object": "0x608060405234801561001057600080fd5b5060405161051838038061051883398101604081905261002f91610063565b600291909155600080546001600160a01b039092166001600160a01b031992831617905560018054909116331790556100a0565b6000806040838503121561007657600080fd5b825160208401519092506001600160a01b038116811461009557600080fd5b809150509250929050565b610469806100af6000396000f3fe608060405234801561001057600080fd5b50600436106100885760003560e01c80636e04ff0d1161005b5780636e04ff0d146100fc578063787a08a61461011d5780637c56687a146101265780638da5cb5b1461013957600080fd5b8063028ebc441461008d57806328c1f99b146100a25780633f3b3b27146100d25780634585e33b146100e9575b600080fd5b6100a061009b366004610305565b61014c565b005b6000546100b5906001600160a01b031681565b6040516001600160a01b0390911681526020015b60405180910390f35b6100db60035481565b6040519081526020016100c9565b6100a06100f7366004610329565b6101bf565b61010f61010a366004610329565b61022e565b6040516100c992919061039b565b6100db60025481565b6100a06101343660046103f3565b610287565b6001546100b5906001600160a01b031681565b6001546001600160a01b03163314610177576040516330cd747160e01b815260040160405180910390fd5b600080546001600160a01b0319166001600160a01b038316908117825560405190917ffdf3a4efeb87cf4efd75fad4af5f737c1bd95c0398ca94760e023a4f0e56fc2491a250565b60006101cd82840184610305565b905042600381905550806001600160a01b031663641c76596040518163ffffffff1660e01b8152600401600060405180830381600087803b15801561021157600080fd5b505af1158015610225573d6000803e3d6000fd5b50505050505050565b6000606060025460035442610243919061040c565b11915083838080601f016020809104026020016040519081016040528093929190818152602001838380828437600092019190915250949792965091945050505050565b6001546001600160a01b031633146102b2576040516330cd747160e01b815260040160405180910390fd5b60028190556040518181527ff4f81c8df394c367119ef9185e49924fbc14f33668d8c0fe5a767cc822858ae29060200160405180910390a150565b6001600160a01b038116811461030257600080fd5b50565b60006020828403121561031757600080fd5b8135610322816102ed565b9392505050565b6000806020838503121561033c57600080fd5b823567ffffffffffffffff8082111561035457600080fd5b818501915085601f83011261036857600080fd5b81358181111561037757600080fd5b86602082850101111561038957600080fd5b60209290920196919550909350505050565b821515815260006020604081840152835180604085015260005b818110156103d1578581018301518582016060015282016103b5565b506000606082860101526060601f19601f830116850101925050509392505050565b60006020828403121561040557600080fd5b5035919050565b8181038181111561042d57634e487b7160e01b600052601160045260246000fd5b9291505056fea26469706673582212203e4cc4badd2caa4eeffc1b12df5f71ef2414b8cd251039dfcc7d33f53b35900564736f6c63430008110033",
    "linkReferences": {}
  },
  "methodIdentifiers": {
    "checkUpkeep(bytes)": "6e04ff0d",
    "cooldown()": "787a08a6",
    "lastTimeStamp()": "3f3b3b27",
    "owner()": "8da5cb5b",
    "performUpkeep(bytes)": "4585e33b",
    "registryContract()": "28c1f99b",
    "setCoolDown(uint256)": "7c56687a",
    "setRegistryContract(address)": "028ebc44"
  },
  "id": 1
}